:020000040800F2
:1000000000000320716B0008B56B0008B56B000899
:10001000B56B0008B56B0008B56B00080000000068
:10002000000000000000000000000000BD550008B6
:10003000B56B000800000000C557000829580008EB
:10004000B56B0008B56B0008B56B0008B56B000810
:10005000B56B0008B56B0008B56B0008B56B000800
:10006000B56B0008B56B0008B56B0008B56B0008F0
:10007000B56B0008B56B0008B56B0008B56B0008E0
:10008000B56B0008B56B0008B56B0008B56B0008D0
:10009000B56B0008B56B0008B56B0008B56B0008C0
:1000A000B56B0008B56B0008B56B0008B56B0008B0
:1000B000B56B0008B56B0008B56B0008B56B0008A0
:1000C000B56B0008B56B0008B56B0008B56B000890
:1000D000B56B0008B56B0008B56B0008B56B000880
:1000E000B56B0008B56B0008B56B0008B56B000870
:1000F000B56B0008B56B0008B56B0008B56B000860
:10010000B56B0008B56B0008B56B0008B56B00084F
:10011000B56B0008B56B0008B56B0008B56B00083F
:10012000B56B0008B56B0008B56B0008B56B00082F
:10013000B56B0008B56B0008B56B0008B56B00081F
:10014000B56B0008B56B0008B56B0008B56B00080F
:10015000B56B0008B56B0008B56B0008B56B0008FF
:10016000B56B0008B56B0008B56B0008B56B0008EF
:10017000B56B0008B56B0008B56B0008B56B0008DF
:10018000B56B0008B56B0008B56B0008B56B0008CF
:10019000B56B0008B56B0008B56B0008B56B0008BF
:1001A000B56B0008B56B0008B56B000880B588B06A
:1001B00000AF0346FB71FB79002B5AD0304B1B6814
:1001C000002B58D0FB790F2B03D92E4802F0C6FE26
:1001D00052E02D4B1B68002B03D02C4802F0BEFED2
:1001E0004AE0EFF310837B617B69BB610123BB6055
:1001F000BB6883F31088244B1B680133224A1360C9
:10020000234B1B681B6B002B28D0FB792133DB10A1
:10021000204AD35C1A46FB79213303F0070342FAE4
:1002200003F303F00103002B18D14FF6FF7002F027
:10023000EBFE03467B82FB797B7402F0DBFBF8600C
:10024000FB68002B0AD0FB6802221A70FB687A8ACE
:100250005A80FB687A7C5A7002F0B8FE0A4B1B6821
:10026000013B094A1360BB69FB61FB6983F310889A
:1002700002E000BF00E000BF2037BD4680BD00BFE8
:10028000000000207875000824020020B8750008DE
:10029000200200208401002080B58EB000AFF860FD
:1002A000B9607A60414B1B68002B7AD07B68002BC9
:1002B00003DA7B685B427B6301E07B687B63EFF37F
:1002C0001083BB62BB6AFB6201237B617B6983F3A2
:1002D0001088374B1B680133354A1360354B1A6859
:1002E0007B681344334A1360304B1B681B6B002B35
:1002F0004CD0314B1B78002B03D1304B1B78002B9B
:1003000044D1FF2002F080FE034687F82730796B46
:100310004FF6FF7000F09CF90346BB8402F06AFBC5
:1003200038623B6A002B31D03B6A97F827205A701D
:100330003B6A00221A703B6ABA8C5A8002F046FE71
:10034000B9684FF6FF7000F083F90346FB83002382
:100350007B7702F04FFBB861BB69002B16D0BB69FD
:10036000FA8B5A80BB697A7F5A70FB68DBB2013323
:10037000DAB2BB691A70FB68DAB23B6A1A7002F033
:1003800025FE0A4B1B680B4A12681A65084B1B684E
:10039000013B074A1360FB6A3B633B6B83F31088A6
:1003A00000E000BF3837BD4680BD00BF20020020FE
:1003B00024020020D8000020D4000020D600002015
:1003C00080B58AB000AFF8600B467A60FB72FB68BC
:1003D000FE2B03D9404802F0C1FD7AE0FB7A062BE0
:1003E00003D93E4802F0BAFD73E03D4B1A68FB7A30
:1003F000134493F864301A467B689A4203D2394812
:1004000002F0ACFD65E0384B1B68002B03D0374889
:1004100002F0A4FD5DE0364B1B78002B58D0EFF3C3
:100420001083FB61FB693B6201233B613B6983F302
:1004300010882D4B1B6801332B4A1360284B1B6817
:100440001B6B002B39D02B4B1B78002B03D12A4B75
:100450001B78002B31D17B68DAB2FB7A1146184643
:1004600006F0CEFA0346002B27D1FB68DB08234AAF
:10047000D35C1A46FB6803F0070342FA03F303F068
:100480000103002B19D14FF6FF7002F0BDFD0346AA
:100490007B837B687B7602F0ADFA78617B69002B09
:1004A0000BD07B697A8B5A80FB68DAB27B691A7051
:1004B0007B697A7E5A7002F089FD0B4B1B68013B09
:1004C000094A13603B6A7B627B6A83F3108800E011
:1004D00000BF2837BD4680BD287600085C7600083E
:1004E00020020020A076000824020020E476000804
:1004F000D5000020D4000020D60000208C01002070
:1005000080B58AB000AFF8607A603B600B46FB7242
:10051000FB68FE2B03D9444802F020FD80E0FB7A03
:10052000062B03D9414802F019FD79E0404B1A68C7
:10053000FB7A134493F864301A467B689A4203D2DC
:100540003C4802F00BFD6BE03B4B1B68002B03D0DB
:100550003A4802F003FD63E0EFF31083FB61FB69AF
:100560003B6201233B613B6983F31088324B1B687C
:100570000133314A13602E4B1B681B6B002B45D097
:100580002F4B1B78002B41D02E4B1B78002B03D018
:100590002D4B1B78002B39D07B68DAB2FB7A1146E1
:1005A000184606F02DFA0346002B2FD1FB68DB0816
:1005B000264AD35C1A46FB6803F0070342FA03F3AA
:1005C00003F00103002B21D1FF2002F01DFD0346A3
:1005D000FB763968FF2000F03BF80346BB767B686A
:1005E0007B7602F007FA78617B69002B0ED07B697D
:1005F000FA7EDA70FB68DAB27B691A707B697A7E00
:100600005A707B69BA7E9A7002F0E0FC0A4B1B6854
:10061000013B094A13603B6A7B627B6A83F3108863
:100620002837BD4680BD00BF1C77000854770008FE
:1006300020020020A077000824020020F0770008A4
:10064000D5000020D6000020D40000208C0100201E
:1006500080B584B000AF786039607B68FF2B09D02B
:100660007B684FF6FF72934204D0164802F076FC86
:100670003B6823E03A687B689A4201D83B681DE0FA
:1006800002F0B8F9F860FB68002B14D0FB68012277
:100690001A707B68DA433B6813401B0ADAB2FB68C6
:1006A0005A707B68DA433B6813401B0C9AB2FB68B4
:1006B0005A8002F08BFC3A687B681340184610376A
:1006C000BD4680BD2878000880B58AB000AF78604C
:1006D00039600023FB847B68FE2B03D9324802F08B
:1006E0003DFC5DE0314B1B68002B03D0304802F02D
:1006F00035FC55E0EFF31083BB61BB69FB6101235F
:10070000FB60FB6883F31088284B1B680133274A82
:100710001360284B1B681B6B002B37D0264B1B78B4
:10072000002B33D0254B1B78002B03D0244B1B7898
:10073000002B2BD07B68DB08224AD35C1A467B68EF
:1007400003F0070342FA03F303F00103002B1DD16A
:10075000FF2002F059FC0346FB7539684FF6FF7025
:10076000FFF776FF0346FB8402F044F938613B69EA
:10077000002B0BD03B69FA7D5A707B68DAB23B697B
:100780001A703B69FA8C5A8002F020FC074B1B68F8
:10079000013B064A1360FB693B623B6A83F31088A6
:1007A0002837BD4680BD00BF6478000824020020C1
:1007B000B878000820020020D5000020D6000020D4
:1007C000D40000208C01002080B58AB000AF034621
:1007D000FB71002387F82730FB790F2B03D93F48A3
:1007E00002F0BCFB77E0FB792133DB103C4AD35CA1
:1007F0001A46FB79213303F0070342FA03F303F0AF
:100800000103002B06D0012387F82730354B012246
:100810001A7002E0334B00221A70EFF31083BB61B1
:10082000BB69FB610123FB60FB6883F310882E4BDF
:100830001B6801332C4A13602C4B1B78FA799A42BF
:1008400002D1012387F82730294B1B681B6B002B33
:1008500002D1012387F8273097F92730002B30D1B8
:100860004FF6FF7002F0D0FB0346FB821F4AFB7974
:1008700013701E4B1B787B7502F0BCF838613B6926
:10088000002B1ED0194B1B781946032000F0A2F94B
:100890000346012B03D13B6907221A7002E03B6932
:1008A00006221A703B69FA8A5A803B697A7D5A702F
:1008B0000E4B1B7801221946032000F04FF902F07D
:1008C00085FB094B1B68013B074A1360FB693B62D0
:1008D0003B6A83F310882837BD4680BDF078000856
:1008E00084010020D600002024020020D500002032
:1008F0002002002090B587B000AF03460A46FB7186
:100900001346BB71BB79062B03D9204802F026FBA6
:1009100039E01F4B1A68BB79134493F86430FA79B5
:100920009A4203D91B4802F019FB2CE0184B1B68B4
:100930001B6B002B27D0FB79FB75154B1C68BA7914
:10094000FB791146184602F079F8034688332344B0
:1009500004333B610021386902F0B0FA0346FB81A1
:1009600002F048F8B860BB68002B0CD0BB790833A4
:10097000DAB2BB681A70BB68FA7D5A70BB68FA8934
:100980005A8002F023FB1C37BD4690BD3479000825
:10099000200200208479000890B585B000AF03469E
:1009A0000A46FB711346BB71BB79062B03D92B4852
:1009B00002F0D4FA4FE02A4B1A68BB79134493F83B
:1009C0006430FA799A4203D9264802F0C7FA42E025
:1009D000234B1B681B6B002B3DD002F00BF8F8601B
:1009E000FB68002B37D0BB79032B17D11C4B1C683D
:1009F000BA79FB791146184602F020F803461946E9
:100A0000174B1A68BB79134493F86C300B440133CD
:100A1000234493F88C20FB685A7015E0104B1C6837
:100A2000BA79FB791146184602F008F803461946D0
:100A30000B4B1A68BB79134493F86C300B44234476
:100A400093F88C20FB685A70BB791033DAB2FB68DC
:100A50001A7002F0BBFA1437BD4690BDD079000879
:100A600020020020287A000890B583B000AF03462A
:100A7000FB710B46BB7113467B71FB79062B03D9C7
:100A8000144802F06BFA22E0134B1A68FB79134406
:100A900093F86430BA799A4203D9104802F05EFAAA
:100AA00015E00D4B1C68FA79BB791146184601F028
:100AB000C5FF03461946084B1A68FB79134493F89F
:100AC0006C300B44013323447A7983F88C200C3743
:100AD000BD4690BD787A000820020020C07A000848
:100AE00090B583B000AF03460A46FB711346BB7155
:100AF000FB79062B04D9164802F030FA002322E0D5
:100B0000144B1A68FB79134493F86430BA799A420B
:100B100004D9114802F022FA002314E00D4B1C689E
:100B2000FA79BB791146184601F088FF0346194649
:100B3000084B1A68FB79134493F86C300B4401336B
:100B4000234493F88C3018460C37BD4690BD00BF47
:100B5000007B000820020020487B000890B583B08D
:100B600000AF0346FB710B46BB7113467B71FB79EB
:100B7000062B03D9144802F0F1F921E0134B1A684F
:100B8000FB79134493F86430BA799A4203D9104838
:100B900002F0E4F914E00D4B1C68FA79BB791146B8
:100BA000184601F04BFF03461946084B1A68FB79BB
:100BB000134493F86C300B4423447A7983F88C20E7
:100BC0000C37BD4690BD00BF887B00082002002086
:100BD000CC7B000890B583B000AF03460A46FB719A
:100BE0001346BB71FB79062B04D9154802F0B6F900
:100BF000002321E0134B1A68FB79134493F8643007
:100C0000BA799A4204D9104802F0A8F9002313E0F7
:100C10000C4B1C68FA79BB791146184601F00EFF9F
:100C200003461946074B1A68FB79134493F86C3056
:100C30000B44234493F88C3018460C37BD4690BDC6
:100C4000087C0008200200204C7C000890B583B08E
:100C500000AF0346FB71104B1B6893F86730FA79BD
:100C60009A4203D90D4802F079F911E00A4B1C6849
:100C7000FB790321184601F0E1FE03461A46064BB4
:100C80001B6893F86F3013442344002283F88C20B0
:100C90000C37BD4690BD00BF20020020887C0008B4
:100CA00080B500AF00F0F2F800F036F900F010F86F
:100CB0000346002B01D0042308E000F023F80121B3
:100CC000012000F049F800F06FF80023184680BDBD
:100CD00080B500AF00F026F803461A4640F611032F
:100CE0009A4209D0064B1B68002B03D100F0E6FBAB
:100CF000034602E0012300E00023184680BD00BF48
:100D00000400002080B500AF0221032000F02EF97E
:100D1000022000F009FC0021032000F027F9002345
:100D2000184680BD80B582B000AF0023FB80002054
:100D300000F05EFA0346FB80FB881B02FB8001206B
:100D400000F056FA03469AB2FB881343FB80FB88F7
:100D500018460837BD4680BD80B584B000AF034655
:100D60000A46FB711346BB710023FB73042000F09D
:100D70003FFA0346FB73BB79002B07D0FB79DB43BB
:100D8000DAB2FB7B1340DBB2FB7303E0FA7BFB7947
:100D90001343FB73FB7B1946042000F0E7F80023A4
:100DA00018461037BD4680BD80B500AF0121022036
:100DB000FFF7D2FF4921202000F0D8F8022000F0F0
:100DC000B3FB0121212000F0D1F800211E2000F00A
:100DD00035F89A21412000F0C9F801214A2000F09D
:100DE000C5F801214B2000F0C1F800214B2000F094
:100DF000BDF80121562000F0B9F80121582000F07B
:100E0000B5F80321402000F0B1F8FF210B2000F0DD
:100E1000ADF8094B0022DA80074BDA88064B9A803E
:100E2000054B9A88044B5A80034B5A88024B1A8010
:100E30000023184680BD00BFF82F012080B584B084
:100E400000AF03460A46FB711346BB710023FB73D8
:100E5000172000F0CDF90346FB73BB79002B04D0BB
:100E6000FA7BFB791343FB7306E0FB79DB43DAB2D1
:100E7000FB7B1340DBB2FB73FB7B1946172000F0B2
:100E800075F8002318461037BD4680BD80B582B086
:100E900000AF01214FF4000002F0B6FB012140F247
:100EA000051002F091FB01214FF4804002F0CCFBD1
:100EB00001214FF4000002F0E7FB00214FF4000095
:100EC00002F0E2FB04220821114804F0E1F80422B8
:100ED0000921104804F0DCF84FF480733B600223D2
:100EE0003B7102237B710123BB710023FB713B46E5
:100EF0001946074804F03EF84FF400733B603B4648
:100F00001946044804F036F800BF0837BD4680BDD6
:100F1000000002400008024080B584B000AF114BD1
:100F20001B889BB203F00103002B17D10023BB8069
:100F30004BF6FF73FB8000233B814FF480637B8182
:100F40004FF48043BB81084B3B603B461946054844
:100F500005F06CFE0121034805F02AFF00BF1037A1
:100F6000BD4680BD005C0040A086010080B584B015
:100F700000AF03460A46FB711346BB710023FB60BA
:100F800001214C4805F034FF4B4B4FF440521A609E
:100F90000AE0494B1B685A1E47490A60002B03D1DF
:100FA00000F08CFA034680E04449424805F0DEFF39
:100FB0000346002BEDD0002282213E4805F058FF69
:100FC0003D4B4FF440521A600AE03B4B1B685A1EDF
:100FD00039490A60002B03D100F070FA034664E03F
:100FE0003749344805F0C2FF0346002BEDD0314BA2
:100FF0001B8B314B4FF440521A600AE02E4B1B689A
:101000005A1E2D490A60002B03D100F057FA0346FF
:101010004BE02C49274805F0A9FF0346002BEDD0F3
:10102000FB791946234805F083FF234B4FF44052C8
:101030001A600AE0204B1B685A1E1F490A60002BE9
:1010400003D100F03BFA03462FE01E49194805F092
:101050008DFF0346002BEDD0BB791946154805F0EE
:1010600067FF154B4FF440521A600AE0124B1B68A1
:101070005A1E11490A60002B03D100F01FFA0346E3
:1010800013E010490B4805F071FF0346002BEDD02B
:101090000D49084805F06AFF0346002BE6D0012100
:1010A000044805F0C5FEFB68DBB218461037BD46A4
:1010B00080BD00BF005C0040040000200100001063
:1010C00002000010800000100400001080B582B003
:1010D00000AF03460A46FB711346BB7101213E482F
:1010E00005F086FE3D4B4FF440521A600AE03B4B40
:1010F0001B685A1E39490A60002B03D100F0DEF943
:10110000034664E03649344805F030FF0346002BBF
:10111000EDD0FB79002219462F4805F0A9FE2F4B90
:101120004FF440521A600AE02C4B1B685A1E2B49A0
:101130000A60002B03D100F0C1F9034647E02949BA
:10114000254805F013FF0346002BEDD0224B1B8BE7
:10115000224B4FF440521A600AE0204B1B685A1E83
:101160001E490A60002B03D100F0A8F903462EE0C7
:101170001D49194805F0FAFE0346002BEDD0BB7956
:101180001946154805F0D4FE144B4FF440521A602E
:101190000AE0124B1B685A1E10490A60002B03D14B
:1011A00000F08CF9034612E00F490B4805F0DEFE13
:1011B0000346002BEDD00D49074805F0D7FE034646
:1011C000002BE6D00121044805F032FE0123184629
:1011D0000837BD4680BD00BF005C00400400002011
:1011E0000100001002000010800000100400001038
:1011F00080B584B000AF0346FB710023FB7301216F
:101200006B4805F0F5FD6B4B4FF440521A600AE055
:10121000684B1B685A1E67490A60002B03D100F017
:101220004DF90346C0E06449614805F09FFE03465E
:10123000002BEDD000215E4805F038FE002282210F
:101240005B4805F015FE5B4B4FF440521A600AE014
:10125000584B1B685A1E57490A60002B03D100F0F7
:101260002DF90346A0E05549514805F07FFE03469D
:10127000002BEDD04E4B1B8B4E4B4FF440521A605F
:101280000AE04C4B1B685A1E4A490A60002B03D1E6
:1012900000F014F9034687E04949454805F066FE29
:1012A0000346002BEDD0FB791946414805F040FE7E
:1012B000404B4FF440521A600AE03E4B1B685A1EE6
:1012C0003C490A60002B03D100F0F8F803466BE0BC
:1012D0003B49374805F04AFE0346002BEDD039491B
:1012E000334805F043FE0346002BE6D00121304889
:1012F00005F07EFD2F4B4FF440521A600AE02D4B53
:101300001B685A1E2B490A60002B03D100F0D6F847
:10131000034649E02849264805F028FE0346002BED
:10132000EDD001228221224805F0A2FD214B4FF48D
:1013300040521A600AE01F4B1B685A1E1D490A6082
:10134000002B03D100F0BAF803462DE01B491848E2
:1013500005F00CFE0346002BEDD0154B1B8B154BF7
:101360004FF440521A600AE0124B1B685A1E114992
:101370000A60002B03D100F0A1F8034614E01249E3
:101380000B4805F0F3FD0346002BEDD00121084882
:1013900005F04EFD064805F0DBFD0346FB73012119
:1013A000034805F083FDFB7B18461037BD4680BD22
:1013B000005C00400400002001000010020000104A
:1013C00080000010040000104000001080B584B0C0
:1013D00000AF0346FB710023FB730121324805F087
:1013E00007FD324B4FF440521A600AE02F4B1B6846
:1013F0005A1E2E490A60002B03D100F05FF8034605
:101400004EE02B49284805F0B1FD0346002BEDD0F6
:101410000021254805F04AFDFB79012219462248A2
:1014200005F026FD214B4FF440521A600AE01F4B95
:101430001B685A1E1D490A60002B03D100F03EF8BC
:1014400003462DE01B49184805F090FD0346002B8C
:10145000EDD0154B1B8B154B4FF440521A600AE030
:10146000124B1B685A1E11490A60002B03D100F071
:1014700025F8034614E010490B4805F077FD0346B4
:10148000002BEDD00121084805F0D2FC064805F0FC
:101490005FFD0346FB730121034805F007FDFB7B5D
:1014A00018461037BD4680BD005C00400400002097
:1014B00001000010020000104000001080B584B050
:1014C00000AF0121164805F0B3FC0121144805F0D6
:1014D0000DFD0021124805F009FDFFF7D7FC10486B
:1014E00005F06AFB0023BB804BF6FF73FB800023F3
:1014F0003B814FF480637B814FF48043BB81094B78
:101500003B600121064805F053FC3B461946044860
:1015100005F08CFB002318461037BD4680BD00BF88
:10152000005C0040A086010080B485B000AF786008
:101530000023FB607B68084A02FB03F3FB6002E0C8
:10154000FB68013BFB60FB68002BF9D100BF14373F
:10155000BD465DF8047B7047A086010080B584B06D
:1015600004AF03F061FF03F065FF002005F03AFED1
:10157000012005F037FEFFF793FB00217220FFF7F3
:10158000A5FD0346002B08D1002005F071FE0120C7
:1015900005F056FE4FF0FF336EE1002204210A20D1
:1015A00004F032FA0246B64B1A60002204210120F0
:1015B00004F02AFA0246B34B1A60002204210A20E2
:1015C00004F022FA0246B04B1A60002208210A20D9
:1015D00004F01AFA0246AD4B1A60002208210A20D4
:1015E00004F012FA0246AA4B1A60002208210A20CF
:1015F00004F00AFA0246A74B1A60A14B1B68002BA5
:1016000013D0A04B1B68002B0FD09F4B1B68002BE7
:101610000BD09E4B1B68002B07D09D4B1B68002BEB
:1016200003D09C4B1B68002B08D1002005F020FE46
:10163000012005F005FE4FF0FF331DE103220021DC
:10164000012004F0E1F90246934B1A60924B1B68AB
:10165000002B06D0904B186800230022002104F0D4
:10166000A5FA0321032004F063FA02468B4B1A60AB
:101670000321032004F05CFA0246894B1A6003211F
:10168000032004F055FA0246864B1A60032200211B
:10169000012004F0B9F90246834B1A60824B1B68A3
:1016A000002B06D0804B186800230022002104F094
:1016B0007DFA03220021012004F0A6F902467B4BAB
:1016C0001A607A4B1B68002B06D0784B18680023F1
:1016D0000022002104F06AFA03220021012004F014
:1016E00093F90246724B1A60714B1B68002B06D0AF
:1016F0006F4B186800230022002104F057FA0322E0
:101700000021012004F080F902466A4B1A60694BFF
:101710001B68002B06D0674B1868002300220021AD
:1017200004F044FA03220021012004F06DF902467E
:10173000614B1A60604B1B68002B06D05E4B18682B
:1017400000230022002104F031FA574B18680023CF
:101750004FF0FF32002104F081FC544B1868002345
:101760004FF0FF32002104F079FC514B1868002340
:101770004FF0FF32002104F071FC4E4B186800233B
:101780004FF0FF32002104F069FC4B4B1868002336
:101790004FF0FF32002104F061FC3F4B1B68002B2F
:1017A00013D0424B1B68002B0FD03F4B1B68002B04
:1017B0000BD03F4B1B68002B07D03E4B1B68002B08
:1017C00003D03D4B1B68002B08D1002005F050FDD5
:1017D000012005F035FD4FF0FF334DE0002303936A
:1017E00000230293002301930123009300234FF46D
:1017F00080723249324802F093FA002303930023A7
:101800000293002301930223009300234FF480727C
:101810002C492D4802F084FA0023039300230293FD
:10182000002301930323009300234FF48072274980
:10183000274802F075FA0023039300230293002344
:1018400001930423009300234FF48072214922481E
:1018500002F066FA0023039300230293002301930E
:101860000523009300234FF480721C491C4802F0AA
:1018700057FA02F06BFCFEE71846BD4680BD00BF7C
:10188000283001201C3001202C30012000300120A4
:101890002030012034300120083001201830012090
:1018A0000C3001202430012038300120303001205C
:1018B000043001201430012010300120D07C0008B9
:1018C000E5180008DC7C0008711B0008E87C0008B3
:1018D00075210008F47C00081D230008FC7C00082A
:1018E000AD26000880B582B000AF7860904B1B68D1
:1018F000032B00F2148101A252F823F00D19000805
:1019000031190008991A0008071B0008894B0122A9
:101910001A60884B01225A60874B186800234FF0E9
:10192000FF32844904F042F9814B01221A60FEE043
:10193000804B01221A607F4B03225A607F4B18684C
:1019400000234FF0FF327B4904F030F9794B02223B
:101950001A60784B03225A60784B186800234FF0C6
:10196000FF32744904F022F9754B186800234FF0D8
:10197000FF32744904F072FB714B186800234FF07A
:10198000FF32714904F06AFB4FF4FA7002F074FB05
:101990006C4B1B68002B03D16B4B1B68002BC7D013
:1019A000684B1B68012B24D1674B1B68002B20D18F
:1019B000664B186800230022002104F04FFB034609
:1019C000002B16D0624B5B68002B02D1604B0322C8
:1019D0005A60604B01221A605D4B5B685D4A536040
:1019E0005B4B5B68013B5A4A5360514B02221A60C1
:1019F00051E0544B1B68002B24D1534B1B68012B27
:101A000020D1554B186800230022002104F026FB4A
:101A10000346002B16D04E4B9B68002B02D14C4B3B
:101A200003229A604B4B02221A60494B9B68494A39
:101A30005360474B9B68013B454A93603C4B0222F5
:101A40001A6028E03F4B1B68012B6FD13E4B1B688F
:101A5000012B6BD1414B186800230022002104F0B8
:101A6000FDFA0346002B61D0394BDB68002B02D115
:101A7000374B0322DA60374B03221A60344BDB68A2
:101A8000344A5360324BDB68013B314AD360284B08
:101A900002221A604AE049E0264B04221A60254BD4
:101AA00001225A60254B186800234FF0FF3221496C
:101AB00004F07CF8224B186800234FF0FF322849CD
:101AC00004F0CCFA1B4B01221A601A4B00225A6018
:101AD000194B186800234FF0FF32164904F066F8DE
:101AE000204B186800234FF0FF321A4904F05EF8CB
:101AF0001D4B186800230022002104F057F80C4BFE
:101B000003221A6013E0194B186800234FF0FF32CC
:101B1000002104F0A3FA064B00221A6007E001201E
:101B200005F08EFB0A2002F0A7FA00E000BFDDE618
:101B3000DC000020E00000202030012000300120E7
:101B400028300120E8000020EC000020183001209F
:101B500008000020F00000200C300120243001207B
:101B6000F8000020343001203830012030300120CE
:101B700080B582B000AF78607B4B1B68072B00F20A
:101B8000E08201A252F823F0A91B0008611C0008A2
:101B9000291D0008511D0008911D0008911E000814
:101BA000511F000839200008704B00221A604FE0D6
:101BB0006F4B08221A606E4B01225A606D4B1868F9
:101BC00000234FF0FF326A4903F0F0FF684B2022F8
:101BD0001A60674B01225A60674B186800234FF068
:101BE000FF32634903F0E2FF644B186800234FF0B3
:101BF000FF32634904F032FA5D4B20221A605C4BDD
:101C000000225A605C4B186800234FF0FF3258499D
:101C100003F0CCFF594B186800234FF0FF325849AE
:101C200004F01CFA524B08221A60514B00225A60F1
:101C3000504B186800234FF0FF324D4903F0B6FFB8
:101C4000642002F019FA494B1B680133474A1360BC
:101C5000464B1B68022BABDD434B01221A6077E237
:101C6000424B00221A604FE0414B10221A60404B59
:101C700001225A603F4B186800234FF0FF323C4965
:101C800003F094FF3A4B20221A60394B01225A602C
:101C9000394B186800234FF0FF32354903F086FFB7
:101CA000364B186800234FF0FF32354904F0D6F95F
:101CB0002F4B20221A602E4B00225A602E4B1868A0
:101CC00000234FF0FF322A4903F070FF2B4B1868B6
:101CD00000234FF0FF322A4904F0C0F9244B1022B0
:101CE0001A60234B00225A60224B186800234FF0E1
:101CF000FF321F4903F05AFF642002F0BDF91B4B6D
:101D00001B680133194A1360184B1B68022BABDDAB
:101D10001C4B1B68002B03D1134B02221A6017E2E5
:101D2000114B03221A6013E2174B186800234FF07F
:101D3000FF32002104F092F9144B186800234FF091
:101D4000FF32002104F08AF9074B04221A60FFE1F8
:101D50000D4B186800234FF0FF32002104F07EF98C
:101D6000014B04221A60F3E1FC0000200001002076
:101D70000401002020300120003001201C3001200F
:101D80000C01002010010020383001201430012007
:101D90009F4B186800234FF0FF329E4904F05EF914
:101DA0009D4B40221A609C4B01225A609B4B186845
:101DB00000234FF0FF32984903F0F8FE964B802243
:101DC0001A60954B01225A60954B186800234FF01A
:101DD000FF32914903F0EAFE924B186800234FF05E
:101DE000FF32914904F03AF98B4B80221A608A4BFA
:101DF00001225A60894B186800234FF0FF32864950
:101E000003F0D4FE844B4FF480721A60824B01229F
:101E10005A60834B186800234FF0FF327E4903F06D
:101E2000C5FE804B186800234FF0FF327E4904F056
:101E300015F9794B40221A60774B00225A60774B94
:101E4000186800234FF0FF32734903F0AFFE724B66
:101E500040221A60704B01225A60714B18680023AF
:101E60004FF0FF326C4903F0A1FE6E4B186800235F
:101E70004FF0FF326C4904F0F1F86C4B1868002306
:101E80000022002103F092FE694B05221A605FE1F7
:101E9000684B00221A604FE05F4B20221A605E4BB5
:101EA00001225A605D4B186800234FF0FF325A49F7
:101EB00003F07CFE584B20221A60574B01225A60D7
:101EC000574B186800234FF0FF32534903F06EFE62
:101ED000544B186800234FF0FF32534904F0BEF80A
:101EE0004D4B20221A604C4B00225A604C4B186814
:101EF00000234FF0FF32484903F058FE494B186861
:101F000000234FF0FF32484904F0A8F8424B20224A
:101F10001A60414B00225A60404B186800234FF072
:101F2000FF323D4903F042FE642002F0A5F8414B28
:101F30001B6801333F4A1360364B1B68C3F1040230
:101F40003C4B1B689A42A7DC394B06221A60FFE023
:101F5000384B00221A604FE02F4B04221A602E4BA0
:101F600001225A602D4B186800234FF0FF322A4996
:101F700003F01CFE284B20221A60274B01225A60D6
:101F8000274B186800234FF0FF32234903F00EFE61
:101F9000244B186800234FF0FF32234904F05EF809
:101FA0001D4B20221A601C4B00225A601C4B1868E3
:101FB00000234FF0FF32184903F0F8FD194B186861
:101FC00000234FF0FF32184904F048F8124B042266
:101FD0001A60114B00225A60104B186800234FF012
:101FE000FF320D4903F0E2FD642002F045F8114B89
:101FF0001B6801330F4A1360064B5B685A1E0D4B7A
:102000001B689A42A8DC0A4B07221A60A0E000BFB6
:102010003430012014010020040100202030012070
:10202000003001201C3001200C0100203030012044
:10203000FC00002000010020464B40221A60454B66
:1020400001225A60444B186800234FF0FF32414987
:1020500003F0ACFD3F4B80221A603E4B01225A60D8
:102060003E4B186800234FF0FF323A4903F09EFDC3
:102070003B4B186800234FF0FF323A4903F0EEFF64
:10208000344B80221A60334B00225A60324B18685E
:1020900000234FF0FF322F4903F088FD2D4B4FF402
:1020A00080721A602B4B00225A602C4B1868002358
:1020B0004FF0FF32274903F079FD294B18680023C0
:1020C0004FF0FF32274903F0C9FF224B40221A602C
:1020D000204B00225A60204B186800234FF0FF323B
:1020E0001C4903F063FD1B4B40221A60194B01226F
:1020F0005A601A4B186800234FF0FF32154903F05D
:1021000055FD174B186800234FF0FF32154903F0B7
:10211000A5FF154B1B68072B05DC134B1B68013310
:10212000114A136009E0114B1868002300220021B6
:1021300003F03CFD0C4B00221A600D4B00221A608C
:1021400006E0012005F07CF80A2001F095FF00BFB1
:1021500012E500BF040100202030012000300120E2
:102160001C3001200C010020100100201030012043
:10217000FC00002080B588B000AF78600023BB6110
:1021800000233B6100237B610023BB600023FB60D5
:102190000123FB61FB69022B31D0032B47D0012BBC
:1021A00040F0AA800223BB600123FB60534B1868F8
:1021B00007F1080100234FF0FF3203F0F7FC08237A
:1021C0003B6101237B614E4B186807F1100100232E
:1021D0004FF0FF3203F0EAFC4A4B186807F1180190
:1021E00000234FF0FF3203F039FF474B18680023FC
:1021F0000022002103F0DAFC0223FB617CE00223D1
:10220000BB600023FB603D4B186807F10801002309
:102210004FF0FF3203F0CAFC3C4B186800234FF02C
:10222000FF32002103F01AFF0323FB6164E0022365
:10223000BB600123FB60314B186807F108010023E4
:102240004FF0FF3203F0B2FC08233B6100237B61B7
:102250002B4B186807F1100100234FF0FF3203F0F9
:10226000A5FC284B186807F1180100234FF0FF3236
:1022700003F0F4FE264B186800230022002103F02F
:1022800095FC234B186800230022002103F08EFCEC
:102290001F4B186800230022002103F087FC1D4B10
:1022A000186800230022002103F080FC194B1868F5
:1022B00000230022002103F079FC164B186800234C
:1022C0000022002103F072FC134B18680023002247
:1022D000002103F06BFC104B186800230022002142
:1022E00003F064FC0C4B186800230022002103F06B
:1022F0005DFC0123FB6100BF4CE700BF20300120E3
:10230000003001202C300120143001201030012039
:10231000183001200C3001202430012080B584B019
:1023200000AF78600123FB6002F004F80346BB6055
:102330006FE0A74B186800230022A64903F08EFE29
:102340000346002B65D0A34B1B68102B39D0102BF4
:102350000BDC022B1DD0022B02DC012B12D058E02B
:10236000042B1ED0082B24D053E0402B39D0402B17
:1023700002DC202B2DD04CE0802B3AD0B3F5807FAF
:102380003FD046E0944B934A92E8030083E8030071
:102390003FE0914B8F4A083392E8030083E8030043
:1023A00037E08D4B8B4A103392E8030083E803003B
:1023B0002FE0894B874A183392E8030083E8030033
:1023C00027E0854B834A203392E8030083E803002B
:1023D0001FE0814B7F4A283392E8030083E8030023
:1023E00017E07D4B7B4A303392E8030083E803001B
:1023F0000FE0794B774A383392E8030083E8030013
:1024000007E0754B734A403392E8030083E803000A
:1024100000BF6F4B1B68184603F0E4FF0346002B18
:1024200087D16E4B186800234FF0FF32002103F074
:1024300015FE7520FEF7CAFF03469BB21B029AB237
:10244000674B1A807120FEF7C1FF03469AB2644BB6
:102450001B8813439AB2624B1A80604B18680023A2
:102460000022002103F0A2FB5E4B00221A600BE168
:102470005C4B1B68584ADB0013445B68032B2ED16E
:10248000574B1B8803F00103574A1360574B1868DA
:1024900000230022544903F089FB0346002B05D09A
:1024A0004D4BFF221A604C4BFF225A604C4B1B884D
:1024B0005B1003F001034C4A13604C4B1868002377
:1024C0000022494903F072FB0346002B00F0D7803D
:1024D000414BFF229A60404BFF22DA60CFE0404B35
:1024E0001B8819463F4B1B683B4A52F8333001EAC0
:1024F00003023C4B1B681A413A4B1B683649DB0010
:102500000B445B689A4240F0BA80364B1B68324AF3
:1025100052F83330202B48D0202B06DC082B20D05B
:10252000102B30D0042B09D0A9E0802B76D0B3F546
:10253000807F00F08580402B5ED0A0E02B4B186898
:1025400007F10C010023002203F030FB0346002BAF
:1025500000F08880204BFF221A611F4BFF225A6136
:1025600080E0234B186807F10C010023002203F0E0
:102570001DFB0346002B77D0174BFF229A61164BA9
:10258000FF22DA6170E01B4B186807F10C01002391
:10259000002203F00BFB0346002B67D00E4BFF22FB
:1025A0001A620D4BFF225A6260E0124B186807F165
:1025B0000C010023002203F0F9FA0346002B57D048
:1025C000054BFF229A62044BFF22DA6250E000BF03
:1025D000003001201C0100201800002008300120DC
:1025E00024010020280100202C0100202830012097
:1025F0002C3001201C300120294B186807F10C01F8
:102600000023002203F0D2FA0346002B32D0254BE0
:10261000FF221A63234BFF225A632BE0204B1868DA
:1026200007F10C010023002203F0C0FA0346002B3F
:1026300022D01C4BFF229A631A4BFF22DA631BE065
:10264000174B186807F10C010023002203F0AEFAC3
:102650000346002B12D0134BFF221A64114BFF22AA
:102660005A640BE000BF0AE000BF08E000BF06E0CC
:1026700000BF04E000BF02E000BF00E000BF0A4B63
:102680001B680133084A1360074B1B680F2B7FF749
:10269000EFAE07F108030A21184601F047FC43E6B4
:1026A0001C300120180000202801002080B584B0D3
:1026B00000AF78600023FB600023BB602D4B1868DF
:1026C000FB68DB002C4A991800234FF0FF3203F01F
:1026D000C5FCFB680133FB60264B1B68184603F002
:1026E00081FE0346002BE9D10023BB6026E0224A8D
:1026F000BB68DB0013445B68012B0DD11E4ABB682D
:1027000052F83330DAB21D4B1B78DBB21343DBB225
:10271000DAB21A4B1A700EE0174ABB6852F833301F
:10272000DBB2DB43DAB2154B1B78DBB21340DBB212
:10273000DAB2124B1A70BB680133BB60BA68FB682F
:102740009A42D4DB0023FB600D4B186800234FF046
:10275000FF32002103F082FC084B1B7819467220DF
:10276000FEF7B4FC064B186800230022002103F09A
:102770001DFAA3E720300120300100208001002055
:102780000830012080B500AF7D4B1A687D4B1B6877
:1027900013447D4A13607D4B7D4A1A607B4B1B6856
:1027A000002B03D17B4800F0D9FBE8E0774B1B6896
:1027B000002B03D1784800F0D1FBE0E0734B1B689D
:1027C00044F2C0620021184604F004FE6F4B1B68FF
:1027D00000221A706D4B1B6801225A706B4B1B68EC
:1027E00002229A70694B1B680322DA70674B1B68E0
:1027F00070221A71654B1B6871225A71634B1B68FA
:1028000072229A71614B1B687322DA715F4B1B68ED
:10281000F0221A725D4B1B68F1225A725B4B1B68E7
:10282000F2229A72594B1B68F322DA72574B1B68DB
:1028300041F6A1229A81554B1B6804229A73534B8F
:102840001B680022DA73514B1B6844F2C0621A61A4
:102850004E4B1B684FF47A629A614C4B1B684FF0E9
:10286000F0325A65494B1B6800229A6503F094FFC9
:10287000464B1B684FF0F132C3F82424434B1B68CE
:102880004FF44872C3F82824404B1B680122C3F858
:102890002C243E4B1B6803F5FA634FF07E521A60FE
:1028A0003A4B1B684FF0F232C3F8D827374B1B68FE
:1028B00003F2DC7350223949184604F029FE334BE9
:1028C0001B684FF0F332C3F82C28304B1B6803F51C
:1028D0008D4334330A221A702C4B1B6803F58D4349
:1028E00035330B221A70294B1B6803F58D433633A1
:1028F0000C221A70254B1B6803F58D4337330D22CC
:102900001A70224B1B6803F58D43383371221A70FD
:102910001E4B1B6803F58D43393372221A701B4B13
:102920001B6803F58D433A3373221A70174B1B68EB
:1029300003F58D433B3374221A70144B1B6803F567
:102940008D433C33F1221A70104B1B6803F58D4305
:102950003D33F2221A700D4B1B6803F58D433E3355
:10296000F3221A70094B1B6803F58D433F33F422A1
:102970001A7003F0B5FF00F013F804F02BFB80BDD4
:10298000041000E0E4030020FC7601202002002077
:102990003C300120047D0008447D00086C7D000867
:1029A00080B582B000AF114B1B683B603B681B7861
:1029B000002B13D100237B600CE03A687B68134442
:1029C00039687A680A4412780132D2B21A707B6888
:1029D00001337B607B680B2BEFD902E0044800F0E9
:1029E000BDFA00BF0837BD4680BD00BF20020020F1
:1029F000807D000880B500AF0E4B1B681B6B002B61
:102A000001D1002313E00B4B1B68DB69B3F57A6F30
:102A100004D3094800F0A2FA002308E0054B1A6825
:102A2000044B1B68DB699B0003F5036313441846E2
:102A300080BD00BF20020020AC7D000880B582B0C0
:102A400000AF03460A46FB711346BB71BB79062BE8
:102A500004D9224800F082FA00233AE0FB79002BE7
:102A600008D01F4B1A68BB79134493F86430FA7985
:102A70009A4204D91B4800F071FA002329E0BB797F
:102A8000062B22D8FB79002B1FD0154B1A68BB7977
:102A9000134493F86430FA799A4216D8104B1A68A6
:102AA000BB793C335B0013449A880D4B1968BB79A2
:102AB0000B4493F8743099B2FB79013B9BB211FB44
:102AC00003F39BB213449BB203E0074800F046FABD
:102AD000002318460837BD4680BD00BFD47D0008DE
:102AE00020020020147E0008547E000880B584B0C7
:102AF00000AF0346FB71FB79062B04D9934800F025
:102B00002DFA00231EE1FB79914A32F813301A4660
:102B1000904B1A608F4B1B688D4A134493F83830E2
:102B2000002B14D18B4B1A688A4B1B68D9B2FB79E6
:102B3000874804335B000344DB88DBB2CB1ADBB28B
:102B40000133D9B2824B13440A4683F83820814BB3
:102B50001B687F4A134493F83830FB73FB797C4A37
:102B600032F81320FB797A490C335B000B449B88C5
:102B70009A420AD9FB79184603F002FF0346184629
:102B800000F0ECF90023FB73DBE0FB79704A32F8CC
:102B90001320013291B26E4A22F81310FB796C4A6D
:102BA00032F813301946FB79694A04335B00134449
:102BB000DB88CB1ABB60FB79654A14335B00134496
:102BC0005B881A46BB689A4209DAFB79BA68D2B2C6
:102BD00091B25F4A14335B0013440A465A80FB7972
:102BE000062B00F2AE8001A252F823F0092C000857
:102BF0003F2C0008732C0008A72C0008432D000868
:102C0000DB2C00080F2D0008FB7BDB08DBB219462C
:102C1000FB7BDB08DBB21A464F4B9B5CD8B2FB7BDD
:102C200003F00703012202FA03F3DBB2DB43DBB25A
:102C300002461340DBB2DAB2474B5A5480E0FB7BCA
:102C40000B33DB10FA7B0B32D21043498A5CD0B2D3
:102C5000FA7B0B3202F00702012101FA02F2D2B232
:102C6000D243D2B201460A40D2B2D1B23A4AD1548A
:102C700066E0FB7B1633DB10FA7B1632D210364946
:102C80008A5CD0B2FA7B163202F00702012101FA07
:102C900002F2D2B2D243D2B201460A40D2B2D1B28B
:102CA0002D4AD1544CE0FB7B2133DB10FA7B2132DF
:102CB000D21029498A5CD0B2FA7B213202F0070295
:102CC000012101FA02F2D2B2D243D2B201460A4045
:102CD000D2B2D1B2204AD15432E0FB7B3133DB1087
:102CE000FA7B3132D2101C498A5CD0B2FA7B313285
:102CF00002F00702012101FA02F2D2B2D243D2B2AB
:102D000001460A40D2B2D1B2134AD15418E0FB7B3B
:102D10003433DB10FA7B3432D2100F498A5CD0B2E4
:102D2000FA7B343202F00702012101FA02F2D2B238
:102D3000D243D2B201460A40D2B2D1B2064AD154ED
:102D400000BFFB7B18461037BD4680BD947E00084F
:102D5000B00100202C0200208401002080B584B046
:102D600000AF03460A46FB711346BB71FB79062B85
:102D700003D91E4800F0F2F834E0BB79002B08D0EC
:102D80001B4B1A68FB79134493F86430BA799A4262
:102D900003D9184800F0E2F824E0FB79164A32F82B
:102DA00013305A1EFB79144904335B000B44DB8853
:102DB0009A4203DA114800F0D1F813E0FB790E4A89
:102DC00032F81320013A91B20B4A22F81310FB7922
:102DD000094A32F81330FB60074AFB681344383362
:102DE000BA791A701037BD4680BD00BFD87E000882
:102DF000200200201C7F0008B00100205C7F00083A
:102E000080B582B000AF03463A60FB710B46BB71E0
:102E10003B68002B03D1234800F0A0F83EE0FB798B
:102E2000062B03D9204800F099F837E0BB79002B36
:102E300003D11E4800F092F830E01D4B1A68FB7970
:102E4000134493F86430BA799A4208D9FB7918464A
:102E500003F096FD0346184600F080F81EE0FA796C
:102E6000BB7911461846FFF7E9FD03461A46114B98
:102E70001A80114B1B68002B10D10D4B1A680D4B9B
:102E80001B8888331344181D094B1A68FB791344B7
:102E900093F86C301A46396804F03AFB0837BD469F
:102EA00080BD00BF8C7F0008BC7F0008E87F000861
:102EB00020020020300200202802002080B588B0C7
:102EC00000AF78600B467B800023FB720023BB724F
:102ED0007B68002B04D11F4800F040F8002334E049
:102EE00007F10B0207F10A031946786800F07CFA33
:102EF000EFF310833B613B697B610123FB60FB685F
:102F000083F31088144B1B680133134A1360B97A9A
:102F1000FA7A7B88786800F02DF90346FB83FB8BF7
:102F2000002B07D1B97AFA7A7B88786800F09EF98D
:102F30000346FB83084B1B68013B074A13607B6910
:102F4000BB61BB6983F31088FB8B18462037BD46F5
:102F500080BD00BF148000082402002080B582B02C
:102F600000AF78607B68002B03D11448FFF7F6FFB1
:102F700021E0134B1B68002B03D11248FFF7EEFF33
:102F800019E00F4B1B6800221A630F4B1B68002BC4
:102F900011D10D4A7B681360094B1B6803F2DC708A
:102FA000094B1B685022194604F0B2FA044B1B6807
:102FB0000122C3F8D4270837BD4680BD44800008ED
:102FC000200200206C8000082802002080B500AF9D
:102FD0000C4B1B681B6B002B12D00A4B1B685A69E9
:102FE00001325A61074B1B68DA690132DA61054B1D
:102FF0001B68DB69B3F57A6F03D302F07BFA00E05C
:1030000000BF80BD2002002090B587B000AF03460E
:10301000FB8000237B6100233B610023FB60FB8876
:10302000FF2B09D0FB884FF6FF72934204D04D4826
:10303000FFF794FF002390E007F10C03184604F01B
:1030400007F8FA68484B1B68D31A3B61FB68464A8D
:103050001360464B1B685B6A002B43D0434B1B68D5
:103060005A6A3B699A421DD2404B1B683F4A12681C
:10307000D16A3E4A1268526A3869B0FBF2F20A44D9
:10308000DA623A4B1968394B1B68986A374B1B68F0
:103090005A6A3B69B3FBF2F402FB04F29B1A034445
:1030A0008B6207E0314B1B68304A1268916A3A69BB
:1030B0000A449A622D4B1B689A6A2C4B1B685B6A08
:1030C0009A4213D3294B1B68DA6A0132DA62274B22
:1030D0001B68264A1268916A244A1268526A8A1A40
:1030E0009A6203E0214B1B68FA689A62FA883B698E
:1030F0009A422CD2FFF77EFC78617B69002B26D0A8
:10310000FB884FF6FF7293420BD17B69A9221A709C
:103110003B691B0C9AB27B695A807B6900225A700A
:1031200013E0FB88FF2B0DD17B69A8221A703B6945
:103130001B0A9AB27B695A803B691B0EDAB27B6923
:103140005A7002E00A48FFF709FFFFF73FFF3B69AB
:103150009AB2FB8813409BB29BB218461C37BD46FF
:1031600090BD00BFF880000834020020200200203B
:103170003881000880B584B000AF786008461146F9
:103180001A460346FB700B46BB7013463B80344B1C
:103190001B68FA7802F56A7233F81230FB817B689B
:1031A000002B04D12F48FFF7D9FE002353E0BB7852
:1031B000002B4AD12C48FFF7D1FE00234BE0284BCF
:1031C0001A68FB890233134493F830341A463B885B
:1031D000DBB29A4226D1224B1A68FB89033313448F
:1031E00093F830349AB23B881B0A9BB29A4219D1A9
:1031F0001B4B1A68FB89191DBB780B44134493F8C9
:103200003034002B0ED1164B1A68FB89043303F5BA
:1032100086631344BA787968184604F029F903469E
:10322000002B16D00E4B1A68FB89134493F83034E8
:103230009AB20B4B1968FB8901330B4493F8303475
:103240009BB21B029BB21344FB81FB89002BB6D1BE
:1032500000E000BFFB8918461037BD4680BD00BFA7
:10326000200200205C8100089881000880B584B0AD
:1032700000AF7860084611461A460346FB700B46BD
:10328000BB7013463B800023FB817B68002B04D17D
:103290005148FFF763FE002399E0BB78002B04D16F
:1032A0004E48FFF75BFE002391E04D4B1B68D3F8BF
:1032B0002C24BB7813440433B3F5487F05D3494825
:1032C000FFF74CFE0023FB8180E0454B1A68444B1E
:1032D0001B68D3F82C3442490968F87800F56A7005
:1032E00031F81010C9B213440A4683F830243C4B1D
:1032F0001A683B4B1B68D3F82C34013338490968F2
:10330000F87800F56A7031F81010090A89B2C9B26C
:1033100013440A4683F83024314B1A68304B1B683B
:10332000D3F82C3402333988C9B213440A4683F8DF
:1033300030242B4B1A682A4B1B68D3F82C340333E8
:103340003988090A89B2C9B213440A4683F830247D
:10335000234B1A68224B1B68D3F82C34043303F533
:1033600086631344BA787968184604F0D1F81C4B88
:103370001A681B4B1B68D3F82C14BB780B4404331E
:103380001344002283F83024154B1B68FA78144943
:103390000968D1F82C1489B202F56A7223F8121068
:1033A0000F4B1B680E4A1268D2F82C14BA780A44E4
:1033B0000532C3F82C240A4B1B68D3F82C349AB27C
:1033C000BB789BB2D31A9BB2053BFB81FB891846A5
:1033D0001037BD4680BD00BFD08100080C820008B8
:1033E000200200204482000880B588B000AFF86059
:1033F000B9607A600123FB610023BB61FB68002B8D
:1034000003D11948FFF7AAFD2BE0BB68002B03D1BD
:103410001648FFF7A3FD24E07B68002B03D1144876
:10342000FFF79CFD1DE0FB68002B0FD006E0FB7D45
:10343000BA691344BB61FB690133FB61FB685A1C29
:10344000FA601B78FB75FB7D002BF0D1BB69DBB20A
:1034500003F03F03DAB2BB681A70FB69DAB27B682B
:103460001A702037BD4680BD84820008B8820008EB
:10347000E882000880B489B000AF78600023BB61A7
:1034800000237B610023FB6102233B610023FB607F
:103490000223BB60484B9B6803F00C03BB61BB6914
:1034A000042B07D0082B09D0002B3FD17B68434A5F
:1034B0001A603FE07B68424A1A603BE03E4B5B6823
:1034C00003F480039B0DFB603B4B5B6803F03F0301
:1034D000BB60FB68002B0DD0394ABB68B2FBF3F22E
:1034E000354B596847F6C0730B409B0903FB02F349
:1034F000FB610CE0314ABB68B2FBF3F22E4B59681A
:1035000047F6C0730B409B0903FB02F3FB612A4B98
:103510005B6803F440331B0C01335B003B61FA69C9
:103520003B69B2FBF3F27B681A6003E07B68234AD5
:103530001A6000BF204B9B6803F0F003BB61BB69BE
:103540001B09BB611F4ABB6913441B78DBB27B615B
:103550007B681A687B69DA407B685A60164B9B6807
:1035600003F4E053BB61BB699B0ABB61154ABB69AD
:1035700013441B78DBB27B617B685A687B69DA4055
:103580007B689A600C4B9B6803F46043BB61BB692A
:103590005B0BBB610B4ABB6913441B78DBB27B61DD
:1035A0007B685A687B69DA407B68DA6000BF243741
:1035B000BD465DF8047B7047003802400024F400EB
:1035C00000127A009800002080B483B000AF7860C9
:1035D0000B46FB70FB78002B06D00A49094B1A6B8F
:1035E0007B6813430B6306E00649064B1A6B7B6846
:1035F000DB4313400B6300BF0C37BD465DF8047B13
:10360000704700BF0038024080B483B000AF7860DC
:103610000B46FB70FB78002B06D00A49094B1A6C4D
:103620007B6813430B6406E00649064B1A6C7B6803
:10363000DB4313400B6400BF0C37BD465DF8047BD1
:10364000704700BF0038024080B483B000AF78609C
:103650000B46FB70FB78002B06D00A49094B5A6CCD
:103660007B6813434B6406E00649064B5A6C7B6843
:10367000DB4313404B6400BF0C37BD465DF8047B51
:10368000704700BF0038024080B483B000AF78605C
:103690000B46FB70FB78002B06D00A49094B1A6ACF
:1036A0007B6813430B6206E00649064B1A6A7B6887
:1036B000DB4313400B6200BF0C37BD465DF8047B53
:1036C000704700BF0038024080B586B004AF0023C9
:1036D0007B6000F0DDFA134B1B68002B0FD000233A
:1036E000039300230293104B0193022300930023C2
:1036F0004FF482720D490E4800F012FB78607B682F
:10370000002B09D14FF0500383F31188BFF36F8F63
:10371000BFF34F8F3B60FEE77B6818460837BD4616
:1037200080BD00BF680200206C0200201C830008DE
:10373000E138000880B58AB000AFF860B9607A60FF
:103740003B6000237B62FB68002B09D14FF05003E4
:1037500083F31188BFF36F8FBFF34F8F3B62FEE798
:103760003E4B1B68002B74D0BB687B617B68BB61E0
:10377000FB68FB61BB68052B18DC01F07FFA034690
:10378000022B09D1354B186807F1140100233A6B5D
:1037900002F00CFA786212E0304B186807F114015D
:1037A0000023002202F002FA786208E02B4B18682E
:1037B00007F1140100233A6802F078FB7862BB68D5
:1037C000002B46DDBB68042B0DD17B6A012B01D198
:1037D000B42000E0BD20FB689B6ADAB27B6805215B
:1037E000FCF78EFE35E0BB68052B20D17B6A012BF0
:1037F0001DD1FB689B6ADBB21A460521B520FCF798
:10380000DFFDFB689B6ADBB205211846FDF772F805
:10381000FB689B6ADBB205211846FDF7BDF8FB6823
:103820009B6ADBB219460520FFF798FA11E0BB68E6
:1038300003F1B0027B6A012B01D1002300E00923D0
:1038400013441846FB689B6ADBB21A460521FCF755
:10385000B7FD7B6A18462837BD4680BD6802002048
:1038600080B588B002AF786039601C4B1B68DB689C
:10387000DB687B617B690433184601F0DFFC7B6900
:10388000DB69012B21D17B699A697B68D1187B6840
:103890003A68786900F0C8F80346012B15D1002377
:1038A000009300237A6800217869FFF743FF3861AD
:1038B0003B69002B09D14FF0500383F31188BFF30C
:1038C0006F8FBFF34F8FFB60FEE77B695B6A7869A0
:1038D000984700BF1837BD4680BD00BF600200207A
:1038E00080B584B000AF786007F10803184600F097
:1038F00057F8F860BB681946F86800F003F800F064
:10390000D5F8F1E780B584B000AF7860396000F099
:1039100069FC07F10803184600F066F8F860BB6818
:10392000002B30D13B68002B0AD17A68FB689A42A1
:1039300006D800F065FCF9687868FFF791FF24E08D
:103940003B68002B08D0134B1B681B68002B0CBF77
:1039500001230023DBB23B600F4B18687A68FB68D9
:10396000D31A3A68194602F0B9FE00F049FC034642
:10397000002B0AD1094B4FF080521A60BFF34F8FD2
:10398000BFF36F8F01E000F03BFC00BF1037BD4676
:1039900080BD00BF640200206802002004ED00E04A
:1039A00080B485B000AF78600E4B1B681B68002B9D
:1039B0000CBF01230023DBB21A467B681A607B68C8
:1039C0001B68002B05D1074B1B68DB681B68FB607D
:1039D00001E00023FB60FB6818461437BD465DF824
:1039E000047B70476002002080B584B000AF78602F
:1039F00000F0A0FCF8600B4B1B68FA689A4205D2F5
:103A000000F0E6F87B6801221A6002E07B68002281
:103A10001A60044AFB681360FB6818461037BD46FD
:103A200080BD00BF7002002080B586B000AFF86096
:103A3000B9607A603B6000237B61FB68BA685A60BA
:103A4000FB68FA681A61BA687B689A4212D87A6889
:103A50003B68D21AFB689B699A4202D301237B61BF
:103A60001BE0104B1A68FB6804331946104601F03E
:103A7000ABFB12E07A683B689A4206D2BA683B68B0
:103A80009A4202D301237B6107E0074B1A68FB6867
:103A900004331946104601F097FB7B691846183726
:103AA000BD4680BD640200206002002080B58CB05D
:103AB00002AF7AE0BB68002B77DB3B697B627B6AF5
:103AC0005B69002B04D07B6A0433184601F0B6FB17
:103AD0003B1D1846FFF788FF3862BB68092B63D887
:103AE00001A252F823F000BF113B0008113B00086F
:103AF000113B0008AB3B00086B3B0008A13B0008F2
:103B0000113B0008113B0008AB3B00086B3B000871
:103B1000FA687B6A9B69D118FB683A6A786AFFF792
:103B200083FF0346012B40D17B6A5B6A786A984722
:103B30007B6ADB69012B38D1FA687B6A9B691A447E
:103B40000023009300230021786AFFF7F3FDF8615A
:103B5000FB69002B29D14FF0500383F31188BFF389
:103B60006F8FBFF34F8F7B61FEE7FA687B6A9A61C4
:103B70007B6A9B69002B09D14FF0500383F31188B6
:103B8000BFF36F8FBFF34F8FBB61FEE77B6A9A690C
:103B90003B6AD1183B6A3A6A786AFFF745FF04E04E
:103BA000786A03F007FB00E000BF084B186807F1D4
:103BB00008010023002202F051FA0346002B7FF493
:103BC00079AF00BF2837BD4680BD00BF6802002026
:103BD00080B588B002AF44E02B4B1B68DB681B68E4
:103BE0007B61294B1B68DB68DB683B613B69043305
:103BF000184601F023FB3B695B6A386998473B69CB
:103C0000DB69012B2DD13B699A697B691344FB6009
:103C1000FA687B699A420ED93B69FA685A603B6937
:103C20003A691A61184B1A683B6904331946104601
:103C300001F0CAFA15E00023009300237A690021FD
:103C40003869FFF777FDB860BB68002B09D14FF0EA
:103C5000500383F31188BFF36F8FBFF34F8F3B6027
:103C6000FEE7094B1B681B68002BB5D1064B1B6890
:103C70007B60064B1B68044A1360044A7B68136030
:103C800000BF1837BD4680BD6002002064020020DE
:103C900080B582B000AF01F03FFD1B4B1B68002BCD
:103CA0002BD11A4801F03EFA194801F03BFA194BA2
:103CB000164A1A60184B164A1A6000220C210A2074
:103CC00001F0A2FE0246104B1A600F4B1B68002B3E
:103CD00009D14FF0500383F31188BFF36F8FBFF307
:103CE0004F8F7B60FEE7084B1B68002B05D0064B0F
:103CF0001B680A49184602F0B9FC01F03BFD00BF01
:103D00000837BD4680BD00BF680200203802002091
:103D10004C0200206002002064020020248300087E
:103D200080B58CB002AFF860B9603B601346FB8091
:103D3000FB68002B09D14FF0500383F31188BFF3C8
:103D40006F8FBFF34F8F3B61FEE73B6B072B09D9AA
:103D50004FF0500383F31188BFF36F8FBFF34F8F82
:103D60007B61FEE7FB88B96B184600F00BFF3862F9
:103D70003B6A002B00F0AA803B6A1A6BFB8803F1B8
:103D80008043013B9B001344FB61FB6923F0070365
:103D9000FB61FB6903F00703002B09D04FF05003D0
:103DA00083F31188BFF36F8FBFF34F8FBB61FEE7C3
:103DB000FB880093FB6B3A6BB968386A00F0DCFD56
:103DC0003A68F968F86901F0A9FB02463B6A1A6093
:103DD0007B6B002B02D07B6B3A6A1A6001F09CFC73
:103DE0004B4B1B6801334A4A13604A4B1B68002B3C
:103DF00009D1484A3B6A1360454B1B68012B0FD120
:103E000000F00EFE0CE0444B1B68002B08D1414B28
:103E10001B68DA6A3B6B9A4202D83E4A3B6A1360DF
:103E20003E4B1B6801333D4A13603C4B1A683B6AAA
:103E30001A643B6A002B26D00320FEF757FE034688
:103E40001A463B6A5A64386A02F090FC03461946E7
:103E50003B6A34331A460320FEF7D2FF386A02F079
:103E600085FC034619463B6ADB6ADBB21A4603202F
:103E7000FCF7FAFD386A02F079FC03461A46032182
:103E80001B20FCF79DFA386A02F070FC03461846C6
:103E9000FCF78CF93B6ADB6A01229A40204B1B68D5
:103EA00013431F4A13603B6ADA6A13469B001344AC
:103EB0009B001C4A1A443B6A04331946104601F021
:103EC0005FF901237B6201F055FC07E04FF0FF33FF
:103ED0007B62002203214320FCF772FA7B6A012BEC
:103EE00011D10D4B1B68002B0DD00A4B1B68DA6AF1
:103EF0003B6B9A4207D20C4B4FF080521A60BFF3D3
:103F00004F8FBFF36F8F7B6A18462837BD4680BD41
:103F1000880300207402002094030020A4030020E2
:103F2000900300207802002004ED00E080B58AB004
:103F300000AF7860396000237B627B68002B09D179
:103F40004FF0500383F31188BFF36F8FBFF34F8F90
:103F5000FB60FEE73B68002B09D14FF0500383F371
:103F60001188BFF36F8FBFF34F8F3B61FEE73D4B6F
:103F70001B68002B09D04FF0500383F31188BFF367
:103F80006F8FBFF34F8F7B61FEE700F02BF9364B4D
:103F90001B683B627B681A683B681344FB617B6863
:103FA0001A683B6A9A420BD97B681A68FB699A4285
:103FB00011D9FA693B6A9A420DD901237B620AE062
:103FC0007B681A68FB699A4203D8FA693B6A9A428D
:103FD00001D901237B627B68FA691A607B6A002B36
:103FE0002ED0F9698820FCF76FFB204B1B68184620
:103FF00002F0BCFB03461846FCF728FE02F0C4FBA7
:104000000346184602F0B2FB03461846FCF71EFEB4
:10401000164B1B680433184601F010F90346002BB9
:104020000BD1124B1B68DB6A012202FA03F3DA435D
:104030000F4B1B6813400E4A1360F86900F06CFDCB
:1040400000F0DEF8B861BB69002B07D1094B4FF0D7
:1040500080521A60BFF34F8FBFF36F8F00BF2837B6
:10406000BD4680BDAC0300208C03002074020020FC
:104070009003002004ED00E080B586B000AF7860CA
:1040800000237B617B68002B46D02B4B1B68002BE9
:1040900009D04FF0500383F31188BFF36F8FBFF344
:1040A0004F8FFB60FEE700F09DF879688920FCF7F0
:1040B0000BFB224B1B68184602F058FB03461846C0
:1040C000FCF7C4FD02F060FB0346184602F04EFB0D
:1040D00003461846FCF7BAFD194B1A687B6813446F
:1040E0003B61164B1B680433184601F0A7F80346E2
:1040F000002B0BD1114B1B68DB6A012202FA03F380
:10410000DA43104B1B6813400E4A1360386900F005
:1041100003FD00F075F878617B69002B07D10A4B2D
:104120004FF080521A60BFF34F8FBFF36F8F00BF05
:104130001837BD4680BD00BFAC03002074020020CC
:104140008C0300209003002004ED00E080B588B0CF
:1041500004AF002303930023029300230193002361
:104160000093002382221A491A48FFF7D9FDF8600C
:10417000FB68012B02D1FFF7A7FAF860FB68012B5F
:1041800015D14FF0500383F31188BFF36F8FBFF346
:104190004F8F7B60104B4FF0FF321A600F4B0122A4
:1041A0001A600F4B00221A6001F02AFA0CE0FB683B
:1041B000002B09D14FF0500383F31188BFF36F8FA9
:1041C000BFF34F8FBB60FEE700BF1037BD4680BD19
:1041D0002C83000849490008A8030020940300200C
:1041E0008C03002080B400AF044B1B680133034AEA
:1041F000136000BFBD465DF8047B7047AC03002030
:1042000080B584B000AF0023FB60414B1B68002BDE
:1042100009D14FF0500383F31188BFF36F8FBFF3C1
:104220004F8F7B60FEE701F077FA394B1B68013B4B
:10423000374A1360364B1B68002B62D1354B1B6825
:10424000002B5ED035E0344BDB68DB68BB60BB68BD
:104250001833184600F0F2FFBB680433184600F02C
:10426000EDFFB86802F082FA03461846FBF79EFF9E
:10427000BB68DB6A01229A40284B1B681343274A1C
:104280001360BB68DA6A13469B0013449B00244A00
:104290001A44BB6804331946104600F071FFBB682E
:1042A000DA6A204B1B68DB6A9A4202D31E4B01225A
:1042B0001A60194B1B68002BC5D11C4B1B68002BC7
:1042C00011D00CE000F046F80346002B02D0164B4C
:1042D00001221A60154B1B68013B144A1360134BF3
:1042E0001B68002BEED1104B1B68012B09D1012359
:1042F000FB600F4B4FF080521A60BFF34F8FBFF33C
:104300006F8F01F037FAFB6818461037BD4680BD45
:10431000AC03002088030020480300209003002005
:1043200078020020740200209C03002098030020E3
:1043300004ED00E080B483B000AF054B1B687B60E8
:104340007B6818460C37BD465DF8047B704700BF9C
:104350008C03002080B586B000AF00237B615D4BED
:104360001B68012B03D05C4B1B68002B07D15B4BF8
:104370001B680133594A1360002002F069FE554B57
:104380001B68544B1B68002B40F09480544B1B68F7
:104390000133534A1360524B1B683B613B69002B4E
:1043A0001FD1504B1B681B68002B09D04FF05003E6
:1043B00083F31188BFF36F8FBFF34F8F3B60FEE72E
:1043C000484B1B68FB60484B1B68464A1360464AD3
:1043D000FB681360454B1B680133444A136000F0CF
:1043E00017FC434B1B683A699A4254D33D4B1B68F8
:1043F0001B68002B01D1012300E00023002B04D017
:104400003B4B4FF0FF321A6045E0364B1B68DB68D0
:10441000DB68BB60BB685B687B603A697B689A421B
:1044200003D2334A7B68136035E0BB680433184617
:1044300000F004FFBB689B6A002B04D0BB681833F4
:10444000184600F0FBFEB86802F090F903461846E3
:10445000FBF7ACFEBB68DB6A01229A40254B1B6868
:104460001343244A1360BB68DA6A13469B00134463
:104470009B00214A1A44BB6804331946104600F0D9
:104480007FFEBB68DA6A1D4B1B68DB6A9A42ADD3BC
:1044900001237B61AAE7194B1B68DA6A16491346A8
:1044A0009B0013449B000B441B68012B07D901237D
:1044B0007B6104E0084B1B680133074A1360104B13
:1044C0001B68002B01D001237B617B6918461837DC
:1044D000BD4680BDAC03002098030020E00300200F
:1044E0008C0300204003002044030020A003002090
:1044F000A80300209003002078020020740200200E
:104500009C03002080B586B000AF2A4B1B68002BAF
:1045100003D0294B01221A6048E0274B00221A6081
:10452000264B1B68BB60BB68B3FA83F3FB71FB7956
:10453000C3F11F033B6122493A6913469B001344B0
:104540009B000B441B68002B09D14FF0500383F3F1
:104550001188BFF36F8FBFF34F8F7B61FEE73A691E
:1045600013469B0013449B00154A1344FB60FB68F1
:104570005B685A68FB685A60FB685A68FB680833D6
:104580009A4204D1FB685B685A68FB685A60FB6812
:104590005B68DB680B4A136002F0F6F803461846C6
:1045A00002F0E4F803461846FCF70EF900BF18378E
:1045B000BD4680BDAC0300209C030020900300207A
:1045C000780200207402002080B584B000AF7860CB
:1045D00039607B68002B09D14FF0500383F31188B9
:1045E000BFF36F8FBFF34F8FBB60FEE7194B1B68A4
:1045F00018331946786800F0E7FD164B1B68043342
:10460000184600F01BFE0346002B0BD1114B1B6814
:10461000DB6A012202FA03F3DA430F4B1B681340F3
:104620000D4A13603B68B3F1FF3F07D1094B1B688C
:1046300004331946094800F0A3FD07E0084B1A6847
:104640003B681344FB60F86800F066FA00BF10375F
:10465000BD4680BD7402002090030020740300203A
:104660008C03002080B586B000AFF860B9607A6036
:10467000FB68002B09D14FF0500383F31188BFF37F
:104680006F8FBFF34F8F3B61FEE7254B1B681833DD
:104690001946F86800F074FD214B1B680433184676
:1046A00000F0CCFD0346002B0BD11D4B1B68DB6AD1
:1046B000012202FA03F3DA431A4B1B681340194A2A
:1046C00013607B68012B07D1154B1B680433194617
:1046D000154800F055FD1EE0144B1A68BB681344E2
:1046E0007B6179698820FBF7EFFF0D4B1B6818464B
:1046F00002F03CF803461846FCF7A8FA02F044F82A
:104700000346184602F032F803461846FCF79EFAB4
:10471000786900F001FA00BF1837BD4680BD00BFC0
:104720007402002090030020740300208C030020FA
:1047300080B586B000AF78607B68DB68DB683B6182
:104740003B69002B09D14FF0500383F31188BFF36D
:104750006F8FBFF34F8FFB60FEE73B69183318463E
:1047600000F06CFD204B1B68002B23D13B69043308
:10477000184600F063FD386901F0F8FF034618465B
:10478000FBF714FD3B69DB6A01229A40174B1B685B
:104790001343164A13603B69DA6A13469B001344BD
:1047A0009B00134A1A443B6904331946104600F033
:1047B000E7FC05E03B69183319460E4800F0E0FCC1
:1047C0003B69DA6A0C4B1B68DB6A9A4205D9012304
:1047D0007B610A4B01221A6001E000237B617B6947
:1047E00018461837BD4680BDAC030020900300205A
:1047F0007802002048030020740200209C0300205F
:1048000080B485B000AF78607B68002B09D14FF091
:10481000500383F31188BFF36F8FBFF34F8FFB609B
:10482000FEE7074B1A687B681A60064B1A687B68BC
:104830005A6000BF1437BD465DF8047B704700BF67
:10484000A00300208C03002080B586B000AF786004
:1048500039607B68002B09D14FF0500383F3118836
:10486000BFF36F8FBFF34F8FBB60FEE73B68002B3A
:1048700009D14FF0500383F31188BFF36F8FBFF35B
:104880004F8FFB60FEE700F047FF1C4B1B683B614E
:104890003B681B68B3F1FF3F02D100237B6126E038
:1048A0007B681A68164B1B689A4207D07B685A6867
:1048B0003B699A4202D801237B6118E07B685B6800
:1048C0003A69D21A3B681B689A420ED23B681A6852
:1048D0007B6859683B69CB1A1A443B681A60786850
:1048E000FFF78EFF00237B6101E001237B6100F075
:1048F00041FF7B6918461837BD4680BD8C030020F8
:10490000A003002080B400AF034B01221A6000BF57
:10491000BD465DF8047B70479C03002080B485B0E1
:1049200000AF78607B68002B05D07B68BB60BB68FC
:104930005B6CFB6001E00023FB60FB6818461437EA
:10494000BD465DF8047B704780B582B000AF7860EB
:1049500000F0A6F8064B1B68012BF9D9054B4FF068
:1049600080521A60BFF34F8FBFF36F8FF0E700BF25
:104970007802002004ED00E080B586B000AFF8605A
:10498000B9607A603B6000237B6112E0BA687B69A2
:1049900013441978FA687B69134434330A461A7051
:1049A000BA687B6913441B78002B06D07B690133FE
:1049B0007B617B69092BE9D900E000BFFB6800221D
:1049C00083F83D207B68072B01D907237B60FB68B8
:1049D0007A68DA62FB687A689A64FB680022DA64B3
:1049E000FB680433184600F0BDFBFB68183318461B
:1049F00000F0B8FBFB68FA681A617B68C3F1080233
:104A0000FB689A61FB68FA685A62FB6800221A65C3
:104A1000FB68002283F8542000BF1837BD4680BDD4
:104A200080B582B000AF00237B600CE07A6813464B
:104A30009B0013449B00124A1344184600F072FB7B
:104A40007B6801337B607B68072BEFD90D4800F052
:104A500069FB0D4800F066FB0C4800F063FB0C4856
:104A600000F060FB0B4800F05DFB0B4B054A1A6041
:104A70000A4B054A1A6000BF0837BD4680BD00BF1B
:104A800078020020180300202C0300204803002097
:104A90005C03002074030020400300204403002036
:104AA00080B582B000AF28E0FFF79CFB174B1B6876
:104AB000002B0CBF01230023DBB27B60FFF7A0FBC0
:104AC0007B68002B19D100F027FE104BDB68DB68F8
:104AD0003B603B680433184600F0B0FB0C4B1B688E
:104AE000013B0B4A13600B4B1B68013B094A1360E7
:104AF00000F040FE386800F07BF8064B1B68002B86
:104B0000D2D100BF0837BD4680BD00BF5C03002086
:104B1000880300207003002080B582B000AF786069
:104B2000134B1B687A685A60124B1B687A689A426A
:104B300009D2114B1A680E4B1B68043319461046F4
:104B400000F042FB10E00D4B1A68094B1B68043360
:104B50001946104600F038FB094B1B687A689A42E8
:104B600002D2074A7B68136000BF0837BD4680BD8C
:104B7000740200208C030020440300204003002026
:104B8000A803002080B584B000AF03463960FB80E5
:104B90003B68002B06D1FB889B00184602F0BAFA4E
:104BA000034600E03B68BB60BB68002B0ED058207A
:104BB00002F0B0FAF860FB68002B03D0FB68BA681B
:104BC0001A6305E0B86802F0F5FA01E00023FB6023
:104BD000FB68002B07D0FB68186BFB889B001A460C
:104BE000A52102F0F7FBFB6818461037BD4680BDD3
:104BF00080B582B000AF78607B681B6B184602F00E
:104C0000D9FA786802F0D6FA00BF0837BD4680BDF1
:104C100080B483B000AF0F4B1B681B68002B01D121
:104C2000012300E00023002B04D00B4B4FF0FF3298
:104C30001A6008E0074B1B68DB68DB687B607B68F9
:104C40005B68054A136000BF0C37BD465DF8047B06
:104C5000704700BF40030020A803002080B483B049
:104C600000AF054B1B687B607B6818460C37BD4660
:104C70005DF8047B704700BF7402002080B483B0ED
:104C800000AF0B4B1B68002B02D101237B6008E0B7
:104C9000084B1B68002B02D102237B6001E000233C
:104CA0007B607B6818460C37BD465DF8047B704717
:104CB00094030020AC03002090B585B000AF78606D
:104CC0007B68FB607B68002B00F08B80FB68DA6AF6
:104CD000464B1B68DB6A9A4280F08380FB689B69C5
:104CE000002B06DB414B1B68DB6AC3F10802FB6843
:104CF0009A61FB685969FB68DA6A13469B001344A2
:104D00009B003B4A1344994201D1012300E0002358
:104D1000002B41D0FB680433184600F08FFA03469D
:104D2000002B15D1FB68DA6A314913469B00134406
:104D30009B000B441B68002B0AD1FB68DB6A012235
:104D400002FA03F3DA432B4B1B681340294A136022
:104D5000264B1B68DA6AFB68DA62F86801F006FD28
:104D600003461846FBF722FAFB68DB6A01229A40E9
:104D7000204B1B6813431F4A1360FB68DA6A134613
:104D80009B0013449B001A4A1A44FB6804331946DB
:104D9000104600F0F5F904E0144B1B68DA6AFB6872
:104DA000DA62F86801F0E2FC03461C46F86801F09C
:104DB000DDFC034619460320FBF792FE034622461C
:104DC00003218E20FBF79CFBF86801F0CFFC034623
:104DD0001946064B1B68DB6ADBB21A460320FBF759
:104DE00043FE00BF1437BD4690BD00BF74020020D3
:104DF000780200209003002090B587B000AF786063
:104E00007B683B6100237B617B68002B00F0938013
:104E10004B4B1B683A699A4209D04FF0500383F319
:104E20001188BFF36F8FBFF34F8FBB60FEE73B6905
:104E3000DB6C002B09D14FF0500383F31188BFF3D3
:104E40006F8FBFF34F8FFB60FEE73B69DB6C5A1E31
:104E50003B69DA643B69DA6A3B699B6C9A426AD0C7
:104E60003B69DB6C002B66D13B690433184600F0CC
:104E7000E5F90346002B15D13B69DA6A314913463F
:104E80009B0013449B000B441B68002B0AD13B6919
:104E9000DB6A012202FA03F3DA432B4B1B6813404F
:104EA000294A1360386901F061FC03461C463869E1
:104EB00001F05CFC034619460320FBF711FE034694
:104EC000224603218F20FBF71BFB386901F04EFCC3
:104ED000034619463B699B6CDBB21A460320FBF77D
:104EE000C3FD3B699A6C3B69DA623B69DB6AC3F1DB
:104EF00008023B699A61386901F038FC034618469C
:104F0000FBF754F93B69DB6A01229A400E4B1B68A0
:104F100013430D4A13603B69DA6A13469B0013443E
:104F20009B00084A1A443B6904331946104600F0B6
:104F300027F901237B617B6918461C37BD4690BD6C
:104F400074020020780200209003002080B400AF9B
:104F5000074B1B68002B04D0054B1B68DA6C013231
:104F6000DA64034B1B681846BD465DF8047B704746
:104F70007402002080B487B000AF786039600023ED
:104F80007B6100233B610023FB6000237B6176E0B3
:104F900001227B6902FA03F33B613B681A683B69B3
:104FA0001340FB60FA683B699A4265D17B681A68D6
:104FB0007B695B00032101FA03F3DB431A407B6842
:104FC0001A607B681A683B681B7919467B695B002D
:104FD00001FA03F31A437B681A603B681B79012BC3
:104FE00003D03B681B79022B2ED17B689A687B69C2
:104FF0005B00032101FA03F3DB431A407B689A60EC
:105000007B689A683B685B7919467B695B0001FAAB
:1050100003F31A437B689A607B685A687B699BB28A
:10502000012101FA03F3DB431A407B685A607B6875
:105030005A683B689B7919467B699BB201FA03F376
:105040009BB21A437B685A607B68DA687B699BB2C3
:105050005B00032101FA03F3DB431A407B68DA604B
:105060007B68DA683B68DB7919467B695B0001FA8B
:1050700003F31A437B68DA607B6901337B617B69E8
:105080000F2B85D900BF1C37BD465DF8047B7047E8
:1050900080B485B000AF78600B467B8013467B7090
:1050A0000023FB600023BB607A787B8803F0070352
:1050B0009B0002FA03F3FB607B88DB089BB2184677
:1050C0007B88DB089BB21A467B68083253F82220A3
:1050D0007B8803F007039B000F2101FA03F3DB43F6
:1050E00002EA03017B6800F1080243F822107B8882
:1050F000DB089BB21A467B68083253F82220FB6813
:105100001343BB607B88DB089BB21A467B6808327E
:10511000B96843F8221000BF1437BD465DF8047B20
:10512000704700BF80B483B000AF78607B6803F144
:1051300008027B685A607B684FF0FF329A607B6898
:1051400003F108027B68DA607B6803F108027B6880
:105150001A617B6800221A6000BF0C37BD465DF8FB
:10516000047B704780B483B000AF78607B68002216
:105170001A6100BF0C37BD465DF8047B704700BF65
:1051800080B485B000AF786039607B685B68FB6095
:105190003B68FA685A60FB689A683B689A60FB68EB
:1051A0009B683A685A60FB683A689A603B687A681C
:1051B0001A617B681B685A1C7B681A6000BF143731
:1051C000BD465DF8047B704780B485B000AF786061
:1051D00039603B681B68BB60BB68B3F1FF3F03D11C
:1051E0007B681B69FB600CE07B680833FB6002E0B6
:1051F000FB685B68FB60FB685B681A68BB689A4287
:10520000F6D9FB685A683B685A603B685B683A6845
:105210009A603B68FA689A60FB683A685A603B6833
:105220007A681A617B681B685A1C7B681A6000BF29
:105230001437BD465DF8047B704700BF80B485B06D
:1052400000AF78607B681B69FB607B685B687A688D
:1052500092689A607B689B687A6852685A60FB68BB
:105260005A687B689A4203D17B689A68FB685A60E7
:105270007B6800221A61FB681B685A1EFB681A6073
:10528000FB681B6818461437BD465DF8047B704701
:1052900080B500AF164A164BD3F8883043F470033C
:1052A000C2F88830134A134B1B6843F001031360A4
:1052B000104B00229A600F4A0E4B1B6823F0847338
:1052C00023F4803313600B4B0B4A5A60094A094B95
:1052D0001B6823F480231360064B0022DA6000F081
:1052E0000DF8034B4FF000629A6000BF80BD00BF15
:1052F00000ED00E0003802401030002480B483B09C
:1053000000AF00237B6000233B60434A424B1B6895
:1053100043F480331360404B1B6803F400333B605D
:105320007B6801337B603B68002B03D17B68B3F55E
:10533000A04FF0D1384B1B6803F40033002B02D090
:1053400001233B6001E000233B603B68012B02D15D
:10535000314B324A5A60304A2F4B1B6C43F080531A
:1053600013642F4A2E4B1B6843F4404313602A4AB0
:10537000294B9B689360284A274B9B6843F4004362
:105380009360254A244B9B6843F4A0539360224AC0
:10539000214B1B6843F08073136000BF1E4B1B68DA
:1053A00003F00073002BF9D01D4A1D4B1B6843F41A
:1053B0008033136000BF1A4B5B6803F48033002B0B
:1053C000F9D0174A164B1B6843F40033136000BF33
:1053D000134B5B6803F40033002BF9D0114B40F200
:1053E00005721A600C4A0C4B9B6823F00303936010
:1053F000094A094B9B6843F00203936000BF064BC8
:105400009B6803F00C03082BF9D100BF0C37BD4695
:105410005DF8047B704700BF00380240085A40071F
:1054200000700040003C024080B500AFFDF7AAF9D3
:1054300000BF80BD80B586B000AF0023FB75284B50
:105440001B68002B04D12748FDF788FD002343E0AB
:10545000254B1B68002B3CD1EFF31083BB60BB686E
:10546000FB6001237B607B6883F310881F4B1B6804
:1054700001331E4A13601A4B1B6801221A6301F0A4
:1054800083F90346184601F071F90346FB75FB7D6D
:10549000002B10D10320FDF729FB0346FB75FB7D94
:1054A000134A19460320FDF7ABFCFB7D0022194689
:1054B0000320FBF7D9FAFB7D1846FBF785F90B4B68
:1054C0001B68013B094A1360FB683B613B6983F33E
:1054D0001088034B1B681B6B18461837BD4680BDF0
:1054E000200200203483000828020020240200202B
:1054F0008083000880B500AF064B1B6800221A634A
:10550000054B1B68002B02D0034B1B68984700BF5C
:1055100080BD00BF20020020B003002080B485B011
:1055200000AFF860B9607A60FB68043BFB60FB6821
:105530004FF080721A60FB68043BFB60BA68FB683E
:105540001A60FB68043BFB600C4AFB681A60FB684E
:10555000143BFB607A68FB681A60FB68043BFB60E5
:10556000FB686FF002021A60FB68203BFB60FB687F
:1055700018461437BD465DF8047B70478155000816
:1055800080B483B000AF0C4B1B68B3F1FF3F09D070
:105590004FF0500383F31188BFF36F8FBFF34F8F2A
:1055A0003B60FEE74FF0500383F31188BFF36F8F2A
:1055B000BFF34F8F7B60FEE7BC000020064B1968ED
:1055C0000868B0E8F04F80F30988BFF36F8F4FF0A1
:1055D000000080F3118870477402002000BF00BFF4
:1055E00006480068006880F3088862B661B6BFF3B9
:1055F0004F8FBFF36F8F00DF00BF00BF08ED00E0EB
:1056000080B586B000AF3B4B1B683B4A934209D143
:105610004FF0500383F31188BFF36F8FBFF34F8FA9
:10562000FB60FEE7334B1B68344A934209D14FF0CD
:10563000500383F31188BFF36F8FBFF34F8F3B612C
:10564000FEE72F4B7B617B691B78DBB2BB607B691C
:10565000FF221A707B691B78DBB2FB71FB79DBB22E
:1056600003F05003DAB2274B1A70274B07221A6057
:1056700009E0254B1B68013B234A1360FB79DBB231
:105680005B00DBB2FB71FB79DBB2DBB25BB2002B00
:10569000EFDB1D4B1B681B021B4A13601A4B1B6878
:1056A00003F4E063184A1360BB68DAB27B691A70CE
:1056B000164A164B1B6843F470031360134A134BCE
:1056C0001B6843F07043136000F0D2F8104B0022C7
:1056D0001A6000F0E9F80F4A0E4B1B6843F0404394
:1056E0001360FFF77DFFFFF74BFF002318461837C5
:1056F000BD4680BD00ED00E071C20F4170C20F4198
:1057000000E400E0D0030020D403002020ED00E0FE
:10571000BC00002034EF00E080B483B000AF4FF055
:10572000500383F31188BFF36F8FBFF34F8F3B603C
:105730000E4B1B6801330D4A13600C4B1B68012B89
:105740000ED10B4B1B68DBB2002B09D04FF050037E
:1057500083F31188BFF36F8FBFF34F8F7B60FEE73A
:1057600000BF0C37BD465DF8047B7047BC000020CD
:1057700004ED00E080B483B000AF114B1B68002B38
:1057800009D14FF0500383F31188BFF36F8FBFF33C
:105790004F8F3B60FEE70A4B1B68013B084A1360D2
:1057A000074B1B68002B04D100237B607B6883F3CD
:1057B000118800BF0C37BD465DF8047B704700BF01
:1057C000BC000020EFF30980BFF36F8F144B1A6801
:1057D0001EF0100F08BF20ED108A20E9F04F106076
:1057E0004DF8043D4FF0500080F31188BFF34F8F08
:1057F000BFF36F8FFEF786FE4FF0000080F3118835
:1058000008BC19680868B0E8F04F1EF0100F08BF18
:10581000B0EC108A80F30988BFF36F8F704700BF28
:105820007402002000BF00BF80B584B000AFEFF36A
:1058300011824FF0500383F31188BFF36F8FBFF3D2
:105840004F8FBA607B60FEF785FD0346002B03D0C7
:10585000064B4FF080521A600023FB60FB6883F315
:10586000118800BF1037BD4680BD00BF04ED00E0C9
:1058700080B400AF084A094B1B680949A1FB031318
:105880009B09013B1360074B07221A6000BFBD460E
:105890005DF8047B704700BF14E000E0A800002022
:1058A000D34D621010E000E0DFF80C00016841F415
:1058B00070010160704700BF88ED00E080B485B0E2
:1058C00000AFEFF30583FB60FB680F2B13D9164A7B
:1058D000FB6813441B78FB72144B1B78FA7A9A42CC
:1058E00009D24FF0500383F31188BFF36F8FBFF3DA
:1058F0004F8F3B60FEE70E4B1B6803F4E0620D4BDD
:105900001B689A4209D94FF0500383F31188BFF303
:105910006F8FBFF34F8F7B60FEE700BF1437BD462C
:105920005DF8047B704700BFF0E300E0D003002087
:105930000CED00E0D403002080B584B000AF7860A7
:1059400039607B68FB60FB68002B09D14FF0500386
:1059500083F31188BFF36F8FBFF34F8FBB60FEE7F8
:10596000FFF7DAFEFB681A68FB68DB6BF968096C05
:1059700001FB03F31A44FB685A60FB6800229A6338
:10598000FB681A68FB689A60FB681A68FB68DB6B47
:10599000013BF968096C01FB03F31A44FB68DA6008
:1059A000FB684FF0FF325A64FB684FF0FF329A6495
:1059B0003B68002B14D1FB681B69002B1AD0FB68D5
:1059C00010331846FEF7B4FE0346012B12D10D4BDF
:1059D0004FF080521A60BFF34F8FBFF36F8F09E013
:1059E000FB6810331846FFF79DFBFB68243318460D
:1059F000FFF798FBFFF7BEFE012318461037BD46A0
:105A000080BD00BF04ED00E0B0B58AB000AFF86023
:105A1000B9601346FB7100233B62FB68002B09D180
:105A20004FF0500383F31188BFF36F8FBFF34F8F95
:105A30007B61FEE7BB68002B02D100237B6205E09F
:105A4000FB68BA6802FB03F301337B627B6A543361
:105A5000184601F05FFBF861FB69002B53D0BB686F
:105A6000002B03D1FB69FA691A6004E0FB6903F1BA
:105A70005402FB691A60FB69FA68DA63FB69BA6869
:105A80001A640121F869FFF757FFFB69FA7983F877
:105A90005020F86900F05EFE03461A46234B9B5CDB
:105AA0001846FDF723F803461A46FB69DA64F869DD
:105AB00000F050FE03461A461C4B9B5C1833DBB2C9
:105AC0001D46F86900F046FE03461A46174B9C5CDB
:105AD000F86900F031FE03461A4621462846FAF7D7
